{
  "contractName": "Arraylength",
  "abi": [
    {
      "inputs": [],
      "stateMutability": "nonpayable",
      "type": "constructor"
    },
    {
      "inputs": [
        {
          "internalType": "uint256",
          "name": "",
          "type": "uint256"
        }
      ],
      "name": "integers",
      "outputs": [
        {
          "internalType": "uint256",
          "name": "",
          "type": "uint256"
        }
      ],
      "stateMutability": "view",
      "type": "function",
      "constant": true
    },
    {
      "inputs": [],
      "name": "getArray",
      "outputs": [
        {
          "internalType": "uint256[]",
          "name": "",
          "type": "uint256[]"
        }
      ],
      "stateMutability": "view",
      "type": "function",
      "constant": true
    },
    {
      "inputs": [],
      "name": "getArrayLength",
      "outputs": [
        {
          "internalType": "uint256",
          "name": "",
          "type": "uint256"
        }
      ],
      "stateMutability": "view",
      "type": "function",
      "constant": true
    }
  ],
  "bytecode": "0x608060405234801561001057600080fd5b506040518060a00160405280600160ff168152602001600260ff168152602001600360ff168152602001600460ff168152602001600560ff16815250600090600561005c929190610062565b506100d1565b8280548282559060005260206000209081019282156100a3579160200282015b828111156100a2578251829060ff16905591602001919060010190610082565b5b5090506100b091906100b4565b5090565b5b808211156100cd5760008160009055506001016100b5565b5090565b6102d9806100e06000396000f3fe608060405234801561001057600080fd5b50600436106100415760003560e01c80630849cc99146100465780635917035214610064578063d504ea1d14610094575b600080fd5b61004e6100b2565b60405161005b919061022e565b60405180910390f35b61007e6004803603810190610079919061014f565b6100be565b60405161008b919061022e565b60405180910390f35b61009c6100e2565b6040516100a9919061020c565b60405180910390f35b60008080549050905090565b600081815481106100ce57600080fd5b906000526020600020016000915090505481565b6060600080548060200260200160405190810160405280929190818152602001828054801561013057602002820191906000526020600020905b81548152602001906001019080831161011c575b5050505050905090565b6000813590506101498161028c565b92915050565b60006020828403121561016157600080fd5b600061016f8482850161013a565b91505092915050565b600061018483836101ee565b60208301905092915050565b600061019b82610259565b6101a58185610271565b93506101b083610249565b8060005b838110156101e15781516101c88882610178565b97506101d383610264565b9250506001810190506101b4565b5085935050505092915050565b6101f781610282565b82525050565b61020681610282565b82525050565b600060208201905081810360008301526102268184610190565b905092915050565b600060208201905061024360008301846101fd565b92915050565b6000819050602082019050919050565b600081519050919050565b6000602082019050919050565b600082825260208201905092915050565b6000819050919050565b61029581610282565b81146102a057600080fd5b5056fea26469706673582212201578fea00c8d75993c65b5d36b72c42d7c9a039bb9dc51309daea5cd401c5d8764736f6c63430008000033",
  "immutableReferences": {},
  "source": "// SPDX-License-Identifier: MIT\r\npragma solidity ^0.8.0;\r\n\r\n\r\ncontract Arraylength {\r\n    uint[] public integers;\r\n    \r\n    constructor() {\r\n        integers = [1, 2, 3, 4, 5];\r\n    }\r\n    \r\n    function getArray() public view returns (uint[] memory) {\r\n        return integers;\r\n    }\r\n    \r\n    function getArrayLength() public view returns (uint) {\r\n        return integers.length;\r\n    }\r\n}\r\n",
  "sourcePath": "C:\\Users\\vishn\\OneDrive\\Desktop\\BLOCKCHAIN\\simple-storage\\contracts\\Arraylength.sol",
  "compiler": {
    "name": "solc",
    "version": "0.8.0+commit.c7dfd78e.Emscripten.clang"
  },
  "schemaVersion": "3.4.16",
  "updatedAt": "2025-11-30T22:57:12.461Z",
  "networkType": "ethereum",
  "devdoc": {
    "kind": "dev",
    "methods": {},
    "version": 1
  },
  "userdoc": {
    "kind": "user",
    "methods": {},
    "version": 1
  }
}