{
  "contractName": "SimpleStorage",
  "abi": [
    {
      "inputs": [
        {
          "internalType": "uint256",
          "name": "x",
          "type": "uint256"
        }
      ],
      "name": "set",
      "outputs": [],
      "stateMutability": "nonpayable",
      "type": "function"
    },
    {
      "inputs": [],
      "name": "get",
      "outputs": [
        {
          "internalType": "uint256",
          "name": "",
          "type": "uint256"
        }
      ],
      "stateMutability": "view",
      "type": "function",
      "constant": true
    },
    {
      "inputs": [],
      "name": "increment",
      "outputs": [],
      "stateMutability": "nonpayable",
      "type": "function"
    }
  ],
  "bytecode": "0x608060405234801561001057600080fd5b506101ed806100206000396000f3fe608060405234801561001057600080fd5b50600436106100415760003560e01c806360fe47b1146100465780636d4ce63c14610062578063d09de08a14610080575b600080fd5b610060600480360381019061005b91906100cb565b61008a565b005b61006a610094565b6040516100779190610103565b60405180910390f35b61008861009d565b005b8060008190555050565b60008054905090565b6000808154809291906100af90610128565b9190505550565b6000813590506100c5816101a0565b92915050565b6000602082840312156100dd57600080fd5b60006100eb848285016100b6565b91505092915050565b6100fd8161011e565b82525050565b600060208201905061011860008301846100f4565b92915050565b6000819050919050565b60006101338261011e565b91507fffffffffffffffffffffffffffffffffffffffffffffffffffffffffffffffff82141561016657610165610171565b5b600182019050919050565b7f4e487b7100000000000000000000000000000000000000000000000000000000600052601160045260246000fd5b6101a98161011e565b81146101b457600080fd5b5056fea26469706673582212204678fb85c8b03d0c2fa7d8557610431baad2643c0734c409250e47465d90e99864736f6c63430008000033",
  "immutableReferences": {},
  "source": "// SPDX-License-Identifier: MIT\r\npragma solidity ^0.8.0;\r\n\r\ncontract SimpleStorage {\r\n    uint256 private storedData;\r\n\r\n    function set(uint256 x) public {\r\n        storedData = x;\r\n    }\r\n\r\n    function get() public view returns (uint256) {\r\n        return storedData;\r\n    }\r\n\r\n    function increment() public {\r\n        storedData++;\r\n        \r\n    }\r\n}\r\n",
  "sourcePath": "C:\\Users\\vishn\\OneDrive\\Desktop\\BLOCKCHAIN\\simple-storage\\contracts\\SimpleStorage.sol",
  "compiler": {
    "name": "solc",
    "version": "0.8.0+commit.c7dfd78e.Emscripten.clang"
  },
  "schemaVersion": "3.4.16",
  "updatedAt": "2025-11-30T22:57:12.460Z",
  "networkType": "ethereum",
  "devdoc": {
    "kind": "dev",
    "methods": {},
    "version": 1
  },
  "userdoc": {
    "kind": "user",
    "methods": {},
    "version": 1
  }
}